{"contractName":"DungeonMaster","abi":[{"inputs":[{"internalType":"address","name":"_devaddr","type":"address"},{"internalType":"uint256","name":"_startBlock","type":"uint256"},{"internalType":"uint256","name":"_depositChestFee","type":"uint256"}],"stateMutability":"nonpayable","type":"constructor"},{"anonymous":false,"inputs":[{"indexed":true,"internalType":"address","name":"user","type":"address"},{"indexed":true,"internalType":"uint256","name":"pid","type":"uint256"},{"indexed":false,"internalType":"uint256","name":"amount","type":"uint256"}],"name":"Deposit","type":"event"},{"anonymous":false,"inputs":[{"indexed":true,"internalType":"address","name":"user","type":"address"},{"indexed":true,"internalType":"uint256","name":"pid","type":"uint256"},{"indexed":false,"internalType":"uint256","name":"amount","type":"uint256"}],"name":"EmergencyWithdraw","type":"event"},{"anonymous":false,"inputs":[{"indexed":true,"internalType":"address","name":"previousOwner","type":"address"},{"indexed":true,"internalType":"address","name":"newOwner","type":"address"}],"name":"OwnershipTransferred","type":"event"},{"anonymous":false,"inputs":[{"indexed":true,"internalType":"address","name":"user","type":"address"},{"indexed":true,"internalType":"uint256","name":"pid","type":"uint256"},{"indexed":false,"internalType":"uint256","name":"amount","type":"uint256"}],"name":"Withdraw","type":"event"},{"inputs":[{"internalType":"uint256","name":"","type":"uint256"}],"name":"burnPoolInfo","outputs":[{"internalType":"contract MyERC20Token","name":"burningStakeToken","type":"address"},{"internalType":"contract MyERC20Token","name":"receiveToken","type":"address"},{"internalType":"uint256","name":"blockRate","type":"uint256"},{"internalType":"uint256","name":"rewardRate","type":"uint256"},{"internalType":"uint256","name":"burnRate","type":"uint256"},{"internalType":"uint256","name":"stakeChestAmount","type":"uint256"},{"internalType":"uint256","name":"receiveChestAmount","type":"uint256"}],"stateMutability":"view","type":"function","constant":true},{"inputs":[{"internalType":"uint256","name":"","type":"uint256"},{"internalType":"address","name":"","type":"address"}],"name":"burnUserInfo","outputs":[{"internalType":"uint256","name":"amountStaked","type":"uint256"},{"internalType":"uint256","name":"startBlock","type":"uint256"}],"stateMutability":"view","type":"function","constant":true},{"inputs":[],"name":"chestRewardPercentage","outputs":[{"internalType":"uint256","name":"","type":"uint256"}],"stateMutability":"view","type":"function","constant":true},{"inputs":[],"name":"depositChestFee","outputs":[{"internalType":"uint256","name":"","type":"uint256"}],"stateMutability":"view","type":"function","constant":true},{"inputs":[],"name":"devaddr","outputs":[{"internalType":"address","name":"","type":"address"}],"stateMutability":"view","type":"function","constant":true},{"inputs":[],"name":"knightToken","outputs":[{"internalType":"contract KnightToken","name":"","type":"address"}],"stateMutability":"view","type":"function","constant":true},{"inputs":[{"internalType":"uint256","name":"","type":"uint256"},{"internalType":"address","name":"","type":"address"}],"name":"knightsProvidedInRaid","outputs":[{"internalType":"uint256","name":"","type":"uint256"}],"stateMutability":"view","type":"function","constant":true},{"inputs":[{"internalType":"uint256","name":"","type":"uint256"}],"name":"multiBurnPoolInfo","outputs":[{"internalType":"contract MyERC20Token","name":"receiveToken","type":"address"},{"internalType":"uint256","name":"blockRate","type":"uint256"},{"internalType":"uint256","name":"rewardRate","type":"uint256"},{"internalType":"uint256","name":"burnRate","type":"uint256"},{"internalType":"uint256","name":"stakeChestAmount","type":"uint256"}],"stateMutability":"view","type":"function","constant":true},{"inputs":[{"internalType":"uint256","name":"","type":"uint256"},{"internalType":"address","name":"","type":"address"}],"name":"multiBurnUserInfo","outputs":[{"internalType":"uint256","name":"amountStakedOfEach","type":"uint256"},{"internalType":"uint256","name":"startBlock","type":"uint256"}],"stateMutability":"view","type":"function","constant":true},{"inputs":[{"internalType":"uint256","name":"","type":"uint256"}],"name":"normalPoolInfo","outputs":[{"internalType":"contract IERC20","name":"stakeToken","type":"address"},{"internalType":"contract MyERC20Token","name":"receiveToken","type":"address"},{"internalType":"uint256","name":"stakedSupply","type":"uint256"},{"internalType":"uint256","name":"uncollectedAmount","type":"uint256"},{"internalType":"uint256","name":"rewardPerBlock","type":"uint256"},{"internalType":"uint256","name":"stakeChestAmount","type":"uint256"},{"internalType":"uint256","name":"receiveChestAmount","type":"uint256"},{"internalType":"uint256","name":"lastUpdateBlock","type":"uint256"},{"internalType":"uint256","name":"accumulatedRewardPerStake","type":"uint256"}],"stateMutability":"view","type":"function","constant":true},{"inputs":[{"internalType":"uint256","name":"","type":"uint256"},{"internalType":"address","name":"","type":"address"}],"name":"normalUserInfo","outputs":[{"internalType":"uint256","name":"amountStaked","type":"uint256"},{"internalType":"uint256","name":"debt","type":"uint256"}],"stateMutability":"view","type":"function","constant":true},{"inputs":[],"name":"owner","outputs":[{"internalType":"address","name":"","type":"address"}],"stateMutability":"view","type":"function","constant":true},{"inputs":[{"internalType":"uint256","name":"","type":"uint256"}],"name":"participatedInRaid","outputs":[{"internalType":"address","name":"","type":"address"}],"stateMutability":"view","type":"function","constant":true},{"inputs":[],"name":"raidBlock","outputs":[{"internalType":"uint256","name":"","type":"uint256"}],"stateMutability":"view","type":"function","constant":true},{"inputs":[],"name":"raidFrequency","outputs":[{"internalType":"uint256","name":"","type":"uint256"}],"stateMutability":"view","type":"function","constant":true},{"inputs":[{"internalType":"address","name":"","type":"address"}],"name":"raidShare","outputs":[{"internalType":"uint256","name":"","type":"uint256"}],"stateMutability":"view","type":"function","constant":true},{"inputs":[],"name":"raidWinLootPercentage","outputs":[{"internalType":"uint256","name":"","type":"uint256"}],"stateMutability":"view","type":"function","constant":true},{"inputs":[],"name":"raidWinPercentage","outputs":[{"internalType":"uint256","name":"","type":"uint256"}],"stateMutability":"view","type":"function","constant":true},{"inputs":[],"name":"renounceOwnership","outputs":[],"stateMutability":"nonpayable","type":"function"},{"inputs":[],"name":"returnIfNotInRaidPercentage","outputs":[{"internalType":"uint256","name":"","type":"uint256"}],"stateMutability":"view","type":"function","constant":true},{"inputs":[],"name":"startBlock","outputs":[{"internalType":"uint256","name":"","type":"uint256"}],"stateMutability":"view","type":"function","constant":true},{"inputs":[{"internalType":"address","name":"newOwner","type":"address"}],"name":"transferOwnership","outputs":[],"stateMutability":"nonpayable","type":"function"},{"inputs":[],"name":"voted","outputs":[{"internalType":"uint256","name":"","type":"uint256"}],"stateMutability":"view","type":"function","constant":true},{"inputs":[{"internalType":"uint256","name":"","type":"uint256"}],"name":"voters","outputs":[{"internalType":"address","name":"","type":"address"}],"stateMutability":"view","type":"function","constant":true},{"inputs":[],"name":"votingActive","outputs":[{"internalType":"bool","name":"","type":"bool"}],"stateMutability":"view","type":"function","constant":true},{"inputs":[{"internalType":"uint256","name":"_depositChestFee","type":"uint256"}],"name":"setDepositChestFee","outputs":[],"stateMutability":"nonpayable","type":"function"},{"inputs":[{"internalType":"uint256","name":"_chestRewardPercentage","type":"uint256"}],"name":"setChestRewardPercentage","outputs":[],"stateMutability":"nonpayable","type":"function"},{"inputs":[{"internalType":"contract KnightToken","name":"_knight","type":"address"}],"name":"setKnightToken","outputs":[],"stateMutability":"nonpayable","type":"function"},{"inputs":[{"internalType":"uint256","name":"_percentage","type":"uint256"}],"name":"setRaidWinLootPercentage","outputs":[],"stateMutability":"nonpayable","type":"function"},{"inputs":[{"internalType":"uint256","name":"_percentage","type":"uint256"}],"name":"setRaidWinPercentage","outputs":[],"stateMutability":"nonpayable","type":"function"},{"inputs":[{"internalType":"uint256","name":"_from","type":"uint256"},{"internalType":"uint256","name":"_to","type":"uint256"}],"name":"getBlocks","outputs":[{"internalType":"uint256","name":"","type":"uint256"}],"stateMutability":"pure","type":"function","constant":true},{"inputs":[],"name":"isStarted","outputs":[{"internalType":"bool","name":"","type":"bool"}],"stateMutability":"view","type":"function","constant":true},{"inputs":[{"internalType":"contract IERC20","name":"_stakeToken","type":"address"},{"internalType":"contract MyERC20Token","name":"_receiveToken","type":"address"},{"internalType":"uint256","name":"_rewardPerBlock","type":"uint256"}],"name":"addNormalPool","outputs":[],"stateMutability":"nonpayable","type":"function"},{"inputs":[],"name":"normalPoolLength","outputs":[{"internalType":"uint256","name":"","type":"uint256"}],"stateMutability":"view","type":"function","constant":true},{"inputs":[{"internalType":"uint256","name":"_pid","type":"uint256"},{"internalType":"address","name":"_user","type":"address"}],"name":"normalPending","outputs":[{"internalType":"uint256","name":"","type":"uint256"},{"internalType":"contract IERC20","name":"","type":"address"}],"stateMutability":"view","type":"function","constant":true},{"inputs":[{"internalType":"uint256","name":"_pid","type":"uint256"}],"name":"updateNormalPool","outputs":[],"stateMutability":"nonpayable","type":"function"},{"inputs":[{"internalType":"uint256","name":"_pid","type":"uint256"},{"internalType":"uint256","name":"_amount","type":"uint256"}],"name":"depositNormalPool","outputs":[],"stateMutability":"nonpayable","type":"function"},{"inputs":[{"internalType":"uint256","name":"_pid","type":"uint256"},{"internalType":"uint256","name":"_amount","type":"uint256"}],"name":"withdrawNormalPool","outputs":[],"stateMutability":"nonpayable","type":"function"},{"inputs":[{"internalType":"uint256","name":"_pid","type":"uint256"}],"name":"emergencyWithdrawNormalPool","outputs":[],"stateMutability":"nonpayable","type":"function"},{"inputs":[{"internalType":"uint256","name":"_pid","type":"uint256"}],"name":"collectNormalPool","outputs":[],"stateMutability":"nonpayable","type":"function"},{"inputs":[{"internalType":"contract MyERC20Token","name":"_stakeToken","type":"address"},{"internalType":"contract MyERC20Token","name":"_receiveToken","type":"address"},{"internalType":"uint256","name":"_blockRate","type":"uint256"},{"internalType":"uint256","name":"_rewardRate","type":"uint256"},{"internalType":"uint256","name":"_burnRate","type":"uint256"}],"name":"addBurnPool","outputs":[],"stateMutability":"nonpayable","type":"function"},{"inputs":[],"name":"burnPoolLength","outputs":[{"internalType":"uint256","name":"","type":"uint256"}],"stateMutability":"view","type":"function","constant":true},{"inputs":[{"internalType":"uint256","name":"_pid","type":"uint256"},{"internalType":"address","name":"_user","type":"address"}],"name":"burnPending","outputs":[{"internalType":"uint256","name":"","type":"uint256"},{"internalType":"uint256","name":"","type":"uint256"},{"internalType":"contract IERC20","name":"","type":"address"}],"stateMutability":"view","type":"function","constant":true},{"inputs":[{"internalType":"uint256","name":"_pid","type":"uint256"},{"internalType":"uint256","name":"_amount","type":"uint256"}],"name":"depositBurnPool","outputs":[],"stateMutability":"nonpayable","type":"function"},{"inputs":[{"internalType":"uint256","name":"_pid","type":"uint256"},{"internalType":"uint256","name":"_amount","type":"uint256"}],"name":"withdrawBurnPool","outputs":[],"stateMutability":"nonpayable","type":"function"},{"inputs":[{"internalType":"uint256","name":"_pid","type":"uint256"}],"name":"collectBurnPool","outputs":[{"internalType":"uint256","name":"","type":"uint256"}],"stateMutability":"nonpayable","type":"function"},{"inputs":[{"internalType":"contract MyERC20Token[]","name":"_stakeTokens","type":"address[]"},{"internalType":"contract MyERC20Token","name":"_receiveToken","type":"address"},{"internalType":"uint256","name":"_blockRate","type":"uint256"},{"internalType":"uint256","name":"_rewardRate","type":"uint256"},{"internalType":"uint256","name":"_burnRate","type":"uint256"}],"name":"addMultiBurnPool","outputs":[],"stateMutability":"nonpayable","type":"function"},{"inputs":[],"name":"multiBurnPoolLength","outputs":[{"internalType":"uint256","name":"","type":"uint256"}],"stateMutability":"view","type":"function","constant":true},{"inputs":[{"internalType":"uint256","name":"_pid","type":"uint256"},{"internalType":"address","name":"_user","type":"address"}],"name":"multiBurnPending","outputs":[{"internalType":"uint256","name":"","type":"uint256"},{"internalType":"uint256","name":"","type":"uint256"},{"internalType":"contract IERC20","name":"","type":"address"}],"stateMutability":"view","type":"function","constant":true},{"inputs":[{"internalType":"uint256","name":"_pid","type":"uint256"},{"internalType":"uint256","name":"_amount","type":"uint256"}],"name":"depositMultiBurnPool","outputs":[],"stateMutability":"nonpayable","type":"function"},{"inputs":[{"internalType":"uint256","name":"_pid","type":"uint256"},{"internalType":"uint256","name":"_amount","type":"uint256"}],"name":"withdrawMultiBurnPool","outputs":[],"stateMutability":"nonpayable","type":"function"},{"inputs":[{"internalType":"uint256","name":"_pid","type":"uint256"}],"name":"collectMultiBurnPool","outputs":[{"internalType":"uint256","name":"","type":"uint256"}],"stateMutability":"nonpayable","type":"function"},{"inputs":[{"internalType":"uint256","name":"_raidFrequency","type":"uint256"}],"name":"allowRaids","outputs":[],"stateMutability":"nonpayable","type":"function"},{"inputs":[{"internalType":"uint256","name":"_amount","type":"uint256"}],"name":"joinRaid","outputs":[{"internalType":"bool","name":"","type":"bool"}],"stateMutability":"nonpayable","type":"function"},{"inputs":[],"name":"checkAndCalculateRaidShares","outputs":[],"stateMutability":"nonpayable","type":"function"},{"inputs":[],"name":"claimRaidRewards","outputs":[],"stateMutability":"nonpayable","type":"function"},{"inputs":[{"internalType":"address","name":"_devaddr","type":"address"}],"name":"dev","outputs":[],"stateMutability":"nonpayable","type":"function"},{"inputs":[],"name":"activateVoting","outputs":[],"stateMutability":"nonpayable","type":"function"},{"inputs":[{"internalType":"uint256","name":"_amount","type":"uint256"}],"name":"vote","outputs":[],"stateMutability":"nonpayable","type":"function"},{"inputs":[],"name":"drainChest","outputs":[],"stateMutability":"nonpayable","type":"function"}],"bytecode":"0x608060405260196009819055600a8190556005600b55600f805460ff1916905560006010556014556101f46015553480156200003a57600080fd5b50604051620049a6380380620049a6833981810160405260608110156200006057600080fd5b508051602082015160409092015190919060006200007d620000f4565b600080546001600160a01b0319166001600160a01b0383169081178255604051929350917f8be0079c531659141344cd1fd0a4f28419497f9722a3daafe3b4186f6b6457e0908290a350601380546001600160a01b0319166001600160a01b039490941693909317909255601655601455620000f8565b3390565b61489e80620001086000396000f3fe608060405234801561001057600080fd5b50600436106103a45760003560e01c806378eb0444116101e9578063c75056c11161010f578063eb462765116100ad578063f503ea401161007c578063f503ea4014610ac3578063f79aa15314610acb578063fb24b33a14610b88578063fb437b7b14610b90576103a4565b8063eb46276514610a0c578063ef4cfeb814610a4e578063f13fcf7f14610a7a578063f2fde38b14610a9d576103a4565b8063d9df7aac116100e9578063d9df7aac14610992578063da58c7d9146109af578063db714efe146109cc578063e9ea5c24146109ef576103a4565b8063c75056c114610938578063c78c351c1461095e578063d49e77cd1461098a576103a4565b80638e78065511610187578063b81241fc11610156578063b81241fc14610877578063c3abf33914610894578063c59bb452146108c0578063c5ffb60a14610930576103a4565b80638e780655146107ea57806392afd2331461080d578063a07119b51461082a578063a7853f3a1461086f576103a4565b8063814ef137116101c3578063814ef137146107825780638c743fb21461079f5780638d88a90e146107bc5780638da5cb5b146107e2576103a4565b806378eb044414610718578063793d6ce5146107445780637a1897b31461077a576103a4565b8063408e2727116102ce578063593a5e251161026c5780635fac84341161023b5780635fac8434146106dd5780636c79c45f146106e5578063715018a614610708578063787c89a214610710576103a4565b8063593a5e25146106115780635cfe101c146106345780635e8187771461066d5780635f2f4ee5146106c0576103a4565b80634dc56298116102a85780634dc56298146105a7578063503c72f0146105f9578063522719ca14610601578063544736e614610609576103a4565b8063408e27271461057b578063482b45951461059757806348cd4cb11461059f576103a4565b8063285078b6116103465780632c109ce9116103155780632c109ce91461050257806332246427146105635780633500f91e1461056b578063397e015f14610573576103a4565b8063285078b6146104cd57806328cdc8d6146104d557806328ef59a7146104f25780632ba7e674146104fa576103a4565b806307cc6b691161038257806307cc6b691461040857806309bf735e14610437578063106d28961461045d5780631c142872146104aa576103a4565b80630121b93f146103a957806302eb16b2146103c857806303abd321146103eb575b600080fd5b6103c6600480360360208110156103bf57600080fd5b5035610bad565b005b6103c6600480360360408110156103de57600080fd5b5080359060200135610cbd565b6103c66004803603602081101561040157600080fd5b5035610e69565b6104256004803603602081101561041e57600080fd5b5035610f12565b60408051918252519081900360200190f35b6104256004803603602081101561044d57600080fd5b50356001600160a01b03166111be565b6104896004803603604081101561047357600080fd5b50803590602001356001600160a01b03166111d0565b604080519283526001600160a01b0390911660208301528051918290030190f35b6103c6600480360360408110156104c057600080fd5b50803590602001356112d9565b6103c6611546565b6103c6600480360360208110156104eb57600080fd5b50356115ad565b6103c6611845565b610425611d22565b61051f6004803603602081101561051857600080fd5b5035611d28565b604080516001600160a01b039889168152969097166020870152858701949094526060850192909252608084015260a083015260c082015290519081900360e00190f35b6103c6611d81565b6104256120ac565b6104256120b2565b6105836120b8565b604080519115158252519081900360200190f35b6103c66120c1565b610425612737565b6105c4600480360360208110156105bd57600080fd5b503561273d565b604080516001600160a01b03909616865260208601949094528484019290925260608401526080830152519081900360a00190f35b610425612788565b61042561278e565b610583612794565b6103c66004803603604081101561062757600080fd5b508035906020013561279d565b6106516004803603602081101561064a57600080fd5b50356128b6565b604080516001600160a01b039092168252519081900360200190f35b6106996004803603604081101561068357600080fd5b50803590602001356001600160a01b03166128dd565b6040805193845260208401929092526001600160a01b031682820152519081900360600190f35b6103c6600480360360208110156106d657600080fd5b50356129ea565b610425612a87565b6103c6600480360360408110156106fb57600080fd5b5080359060200135612a8d565b6103c6612cae565b610425612d50565b6104256004803603604081101561072e57600080fd5b50803590602001356001600160a01b0316612d56565b6103c66004803603606081101561075a57600080fd5b506001600160a01b03813581169160208101359091169060400135612d84565b610425612f02565b6103c66004803603602081101561079857600080fd5b5035612f08565b6103c6600480360360208110156107b557600080fd5b5035612fbb565b6103c6600480360360208110156107d257600080fd5b50356001600160a01b0316613034565b6106516130a1565b6103c66004803603604081101561080057600080fd5b50803590602001356130b0565b6103c66004803603602081101561082357600080fd5b503561321c565b6108566004803603604081101561084057600080fd5b50803590602001356001600160a01b03166132ba565b6040805192835260208301919091528051918290030190f35b6104256132de565b6105836004803603602081101561088d57600080fd5b50356132e4565b610856600480360360408110156108aa57600080fd5b50803590602001356001600160a01b031661359a565b6108dd600480360360208110156108d657600080fd5b50356135be565b604080516001600160a01b039a8b168152989099166020890152878901969096526060870194909452608086019290925260a085015260c084015260e08301526101008201529051908190036101200190f35b610425613623565b6103c66004803603602081101561094e57600080fd5b50356001600160a01b0316613629565b6106996004803603604081101561097457600080fd5b50803590602001356001600160a01b03166136a3565b6106516136f7565b610425600480360360208110156109a857600080fd5b5035613706565b610651600480360360208110156109c557600080fd5b5035613a30565b610425600480360360408110156109e257600080fd5b5080359060200135613a3d565b6103c660048036036020811015610a0557600080fd5b5035613a52565b6103c6600480360360a0811015610a2257600080fd5b506001600160a01b03813581169160208101359091169060408101359060608101359060800135613bc4565b61085660048036036040811015610a6457600080fd5b50803590602001356001600160a01b0316613d13565b6103c660048036036040811015610a9057600080fd5b5080359060200135613d37565b6103c660048036036020811015610ab357600080fd5b50356001600160a01b0316613e8e565b610651613f86565b6103c6600480360360a0811015610ae157600080fd5b810190602081018135640100000000811115610afc57600080fd5b820183602082011115610b0e57600080fd5b80359060200191846020830284011164010000000083111715610b3057600080fd5b919080806020026020016040519081016040528093929190818152602001838360200280828437600092019190915250929550506001600160a01b038335169350505060208101359060408101359060600135613f95565b6104256140d1565b6103c660048036036020811015610ba657600080fd5b50356140d7565b600f5460ff16610bbc57600080fd5b3360009081526012602052604090205415610bd657600080fd5b601754604080516323b872dd60e01b81523360048201523060248201526044810184905290516001600160a01b03909216916323b872dd916064808201926020929091908290030181600087803b158015610c3057600080fd5b505af1158015610c44573d6000803e3d6000fd5b505050506040513d6020811015610c5a57600080fd5b5050601054610c69908261418a565b60105560118054600181019091557f31ecc21a745e3968a04e9570e4425bc18fa8019c68028196b546d1669c200c680180546001600160a01b03191633908117909155600090815260126020526040902055565b436016541115610d07576040805162461bcd60e51b815260206004820152601060248201526f3737ba103cb2ba1039ba30b93a32b21760811b604482015290519081900360640190fd5b600060038381548110610d1657fe5b60009182526020808320868452600482526040808520338652909252922080546007909202909201925015610d5057610d4e84613706565b505b8154604080516323b872dd60e01b81523360048201523060248201526044810186905290516001600160a01b03909216916323b872dd916064808201926020929091908290030181600087803b158015610da957600080fd5b505af1158015610dbd573d6000803e3d6000fd5b505050506040513d6020811015610dd357600080fd5b5050601454600090610df49061271090610dee9087906141e4565b9061423d565b6005840154909150610e06908261418a565b60058401558154610e23908290610e1d908761418a565b9061427f565b8255436001830155604080518581529051869133917f90890809c654f11d6e72a28fa60149770a0d11ec6c92319d6ceb2bb0a4ea1a159181900360200190a35050505050565b600060018281548110610e7857fe5b600091825260208083208584526002825260408085203380875290845294819020805482519081529151600990950290920195509093869390927fbb757047c2b5f3974fe26b7c10f732e7bce710b0952a71082702781e62ae0595928290030190a380546002830154610eea9161427f565b600283015580548254610f0a916001600160a01b039091169033906142c1565b600090555050565b60008060058381548110610f2257fe5b60009182526020808320868452600680835260408086203387529093529184206001810154939092020193509190610f5a9043613a3d565b90506000610f7584600201548361423d90919063ffffffff16565b90506000610f908560040154836141e490919063ffffffff16565b905060008460000154821115610fe657610fd7620186a0610dee8860030154610fd18a60040154610dee620186a08c600001546141e490919063ffffffff16565b906141e4565b85546000875592509050611008565b6003860154610ff69084906141e4565b8554909150611005908361427f565b85555b60005b865481101561109c57600087600001828154811061102557fe5b600091825260208220015460408051630852cd8d60e31b81526004810188905290516001600160a01b03909216935083926342966c689260248084019382900301818387803b15801561107757600080fd5b505af115801561108b573d6000803e3d6000fd5b50506001909301925061100b915050565b5060006110af6064610dee84605f6141e4565b905060006110c36064610dee8560056141e4565b6001890154604080516340c10f1960e01b81523360048201526024810186905290519293506001600160a01b03909116916340c10f199160448082019260009290919082900301818387803b15801561111b57600080fd5b505af115801561112f573d6000803e3d6000fd5b505050506001880154601354604080516340c10f1960e01b81526001600160a01b03928316600482015260248101859052905191909216916340c10f1991604480830192600092919082900301818387803b15801561118d57600080fd5b505af11580156111a1573d6000803e3d6000fd5b50504360019099019890985550919750505050505050505b919050565b600e6020526000908152604090205481565b6000806000600185815481106111e257fe5b600091825260208083208884526002825260408085206001600160a01b038a16865290925292206008600990920290920190810154600782015491935090431180156112315750600283015415155b15611292576000611246846007015443613a3d565b905060006112618286600401546141e490919063ffffffff16565b905061128d6112868660020154610dee64e8d4a51000856141e490919063ffffffff16565b849061418a565b925050505b6112ba8260010154610e1d64e8d4a51000610dee8587600001546141e490919063ffffffff16565b600190930154929450506001600160a01b039091169150509250929050565b436016541115611323576040805162461bcd60e51b815260206004820152601060248201526f3737ba103cb2ba1039ba30b93a32b21760811b604482015290519081900360640190fd5b60006001838154811061133257fe5b60009182526020808320868452600282526040808520338652909252922060099091029091019150611363846115ad565b80541561146c5760006113988260010154610e1d64e8d4a51000610dee876008015487600001546141e490919063ffffffff16565b905080836003015410156113dd5760405162461bcd60e51b81526004018080602001828103825260258152602001806147916025913960400191505060405180910390fd5b60018301546040805163a9059cbb60e01b81523360048201526024810184905290516001600160a01b039092169163a9059cbb916044808201926020929091908290030181600087803b15801561143357600080fd5b505af1158015611447573d6000803e3d6000fd5b505050506040513d602081101561145d57600080fd5b50506003830180549190910390555b8154611483906001600160a01b0316333086614318565b60006114a0612710610dee601454876141e490919063ffffffff16565b82549091506114b5908290610e1d908761418a565b82556114cf6114c4858361427f565b60028501549061418a565b600284015560058301546114e3908261418a565b6005840155600883015482546115039164e8d4a5100091610dee916141e4565b6001830155604080518581529051869133917f90890809c654f11d6e72a28fa60149770a0d11ec6c92319d6ceb2bb0a4ea1a159181900360200190a35050505050565b61154e614378565b6000546001600160a01b0390811691161461159e576040805162461bcd60e51b815260206004820181905260248201526000805160206147f9833981519152604482015290519081900360640190fd5b600f805460ff19166001179055565b6000600182815481106115bc57fe5b90600052602060002090600902019050806007015443116115dd5750611842565b60028101546115f25743600790910155611842565b6000611602826007015443613a3d565b9050600061161d8360040154836141e490919063ffffffff16565b90506000611640612710610dee60155461251c03856141e490919063ffffffff16565b6001850154604080516340c10f1960e01b81523060048201526024810184905290519293506001600160a01b03909116916340c10f199160448082019260009290919082900301818387803b15801561169857600080fd5b505af11580156116ac573d6000803e3d6000fd5b50505060018501546013546001600160a01b0391821692506340c10f1991166116db6064610dee8760056141e4565b6040518363ffffffff1660e01b815260040180836001600160a01b0316815260200182815260200192505050600060405180830381600087803b15801561172157600080fd5b505af1158015611735573d6000803e3d6000fd5b50505050611762611757612710610dee601554866141e490919063ffffffff16565b60068601549061418a565b600685015560018401546015546001600160a01b03909116906340c10f199030906117969061271090610dee9088906141e4565b6040518363ffffffff1660e01b815260040180836001600160a01b0316815260200182815260200192505050600060405180830381600087803b1580156117dc57600080fd5b505af11580156117f0573d6000803e3d6000fd5b505050600385015461180391508261418a565b6003850155600284015461182f9061182490610dee8464e8d4a510006141e4565b60088601549061418a565b6008850155505043600790920191909155505b50565b336000818152600e602052604081205491905b600154811015611a1a5760006001828154811061187157fe5b9060005260206000209060090201905060006118ae6064610dee600a54610fd164e8d4a51000610dee8b89600501546141e490919063ffffffff16565b905060006118dd6064610dee600a54610fd164e8d4a51000610dee8c8a600601546141e490919063ffffffff16565b83546040805163a9059cbb60e01b81526001600160a01b03898116600483015260248201879052915193945091169163a9059cbb916044808201926020929091908290030181600087803b15801561193457600080fd5b505af1158015611948573d6000803e3d6000fd5b505050506040513d602081101561195e57600080fd5b505060018301546040805163a9059cbb60e01b81526001600160a01b038881166004830152602482018590529151919092169163a9059cbb9160448083019260209291908290030181600087803b1580156119b857600080fd5b505af11580156119cc573d6000803e3d6000fd5b505050506040513d60208110156119e257600080fd5b505060058301546119f3908361427f565b60058401556006830154611a07908261427f565b6006909301929092555050600101611858565b5060005b600354811015611be057600060038281548110611a3757fe5b906000526020600020906007020190506000611a746064610dee600a54610fd164e8d4a51000610dee8b89600501546141e490919063ffffffff16565b90506000611aa36064610dee600a54610fd164e8d4a51000610dee8c8a600601546141e490919063ffffffff16565b83546040805163a9059cbb60e01b81526001600160a01b03898116600483015260248201879052915193945091169163a9059cbb916044808201926020929091908290030181600087803b158015611afa57600080fd5b505af1158015611b0e573d6000803e3d6000fd5b505050506040513d6020811015611b2457600080fd5b505060018301546040805163a9059cbb60e01b81526001600160a01b038881166004830152602482018590529151919092169163a9059cbb9160448083019260209291908290030181600087803b158015611b7e57600080fd5b505af1158015611b92573d6000803e3d6000fd5b505050506040513d6020811015611ba857600080fd5b50506005830154611bb9908361427f565b60058401556006830154611bcd908261427f565b6006909301929092555050600101611a1e565b5060005b600554811015611d0d57600060058281548110611bfd57fe5b906000526020600020906006020190506000611c3a6064610dee600a54610fd164e8d4a51000610dee8b89600501546141e490919063ffffffff16565b905060005b8254811015611ceb57826000018181548110611c5757fe5b60009182526020808320909101546040805163a9059cbb60e01b81526001600160a01b038a81166004830152602482018890529151919092169363a9059cbb93604480850194919392918390030190829087803b158015611cb757600080fd5b505af1158015611ccb573d6000803e3d6000fd5b505050506040513d6020811015611ce157600080fd5b5050600101611c3f565b506005820154611cfb908261427f565b60059092019190915550600101611be4565b5050336000908152600e602052604081205550565b600a5481565b60038181548110611d3557fe5b600091825260209091206007909102018054600182015460028301546003840154600485015460058601546006909601546001600160a01b039586169750949093169491939092919087565b6007544311611dcb576040805162461bcd60e51b815260206004820152601160248201527072616964206e6f7420737461727465642160781b604482015290519081900360640190fd5b600d546000908190611dde90600161427f565b905060005b600c54811015611e59576000600c8281548110611dfc57fe5b600091825260209091200154600d80546001600160a01b039092169250611e4e9185908110611e2757fe5b600091825260208083206001600160a01b038616845290910190526040902054859061418a565b935050600101611de3565b50600b54601754604080516318160ddd60e01b81529051611ed693926001600160a01b0316916318160ddd916004808301926020929190829003018186803b158015611ea457600080fd5b505afa158015611eb8573d6000803e3d6000fd5b505050506040513d6020811015611ece57600080fd5b50519061423d565b821015611f765760175460408051630852cd8d60e31b81526004810185905290516001600160a01b03909216916342966c689160248082019260009290919082900301818387803b158015611f2a57600080fd5b505af1158015611f3e573d6000803e3d6000fd5b50505050600c6000611f5091906146b3565b600d80546001018155600052600854600754611f6b9161418a565b600755506120aa9050565b60005b600c54811015612015576000600c8281548110611f9257fe5b6000918252602082200154600d80546001600160a01b0390921693509085908110611fb957fe5b600091825260208083206001600160a01b0386168452909101905260408120549150611fee86610dee8464e8d4a510006141e4565b6001600160a01b039093166000908152600e60205260409020929092555050600101611f79565b5060175460408051630852cd8d60e31b81526004810185905290516001600160a01b03909216916342966c689160248082019260009290919082900301818387803b15801561206357600080fd5b505af1158015612077573d6000803e3d6000fd5b50505050600c600061208991906146b3565b600d805460010181556000526008546007546120a49161418a565b60075550505b565b60105481565b60155481565b600f5460ff1681565b6120c9614378565b6000546001600160a01b03908116911614612119576040805162461bcd60e51b815260206004820181905260248201526000805160206147f9833981519152604482015290519081900360640190fd5b600f5460ff1661212857600080fd5b6121806064610fd1600a601760009054906101000a90046001600160a01b03166001600160a01b03166318160ddd6040518163ffffffff1660e01b815260040160206040518083038186803b158015611ea457600080fd5b601054101561218e57600080fd5b60005b601154811015612720576000601182815481106121aa57fe5b60009182526020808320909101546001600160a01b03168083526012909152604082205460105491935091906121e990610dee8464e8d4a510006141e4565b905060005b60015481101561239a5760006001828154811061220757fe5b90600052602060002090600902019050600061223964e8d4a51000610dee8685600501546141e490919063ffffffff16565b9050600061225d64e8d4a51000610dee8786600601546141e490919063ffffffff16565b83546040805163a9059cbb60e01b81526001600160a01b038b8116600483015260248201879052915193945091169163a9059cbb916044808201926020929091908290030181600087803b1580156122b457600080fd5b505af11580156122c8573d6000803e3d6000fd5b505050506040513d60208110156122de57600080fd5b505060018301546040805163a9059cbb60e01b81526001600160a01b038a81166004830152602482018590529151919092169163a9059cbb9160448083019260209291908290030181600087803b15801561233857600080fd5b505af115801561234c573d6000803e3d6000fd5b505050506040513d602081101561236257600080fd5b50506005830154612373908361427f565b60058401556006830154612387908261427f565b60069093019290925550506001016121ee565b5060005b60035481101561254a576000600382815481106123b757fe5b9060005260206000209060070201905060006123e964e8d4a51000610dee8685600501546141e490919063ffffffff16565b9050600061240d64e8d4a51000610dee8786600601546141e490919063ffffffff16565b83546040805163a9059cbb60e01b81526001600160a01b038b8116600483015260248201879052915193945091169163a9059cbb916044808201926020929091908290030181600087803b15801561246457600080fd5b505af1158015612478573d6000803e3d6000fd5b505050506040513d602081101561248e57600080fd5b505060018301546040805163a9059cbb60e01b81526001600160a01b038a81166004830152602482018590529151919092169163a9059cbb9160448083019260209291908290030181600087803b1580156124e857600080fd5b505af11580156124fc573d6000803e3d6000fd5b505050506040513d602081101561251257600080fd5b50506005830154612523908361427f565b60058401556006830154612537908261427f565b600690930192909255505060010161239e565b5060005b60055481101561266c5760006005828154811061256757fe5b90600052602060002090600602019050600061259964e8d4a51000610dee8685600501546141e490919063ffffffff16565b905060005b825481101561264a578260000181815481106125b657fe5b60009182526020808320909101546040805163a9059cbb60e01b81526001600160a01b038c81166004830152602482018890529151919092169363a9059cbb93604480850194919392918390030190829087803b15801561261657600080fd5b505af115801561262a573d6000803e3d6000fd5b505050506040513d602081101561264057600080fd5b505060010161259e565b50600582015461265a908261427f565b6005909201919091555060010161254e565b506017546001600160a01b03848116600081815260126020908152604080832054815163a9059cbb60e01b81526004810195909552602485015251939094169363a9059cbb93604480850194929391928390030190829087803b1580156126d257600080fd5b505af11580156126e6573d6000803e3d6000fd5b505050506040513d60208110156126fc57600080fd5b505050506001600160a01b0316600090815260126020526040812055600101612191565b50600f805460ff191690556120aa601160006146b3565b60165481565b6005818154811061274a57fe5b6000918252602090912060069091020160018101546002820154600383015460048401546005909401546001600160a01b0390931694509092909185565b60055490565b60035490565b60165443101590565b6000600383815481106127ac57fe5b600091825260208083208684526004825260408085203386529092529220600790910290910191506127dd84613706565b5080548311156127ec57805492505b80546127f8908461427f565b815581546040805163a9059cbb60e01b81523360048201526024810186905290516001600160a01b039092169163a9059cbb916044808201926020929091908290030181600087803b15801561284d57600080fd5b505af1158015612861573d6000803e3d6000fd5b505050506040513d602081101561287757600080fd5b5050604080518481529051859133917ff279e6a1f5e320cca91135676d9cb6e44ca8a08c0b88342bcdb1144f6511b5689181900360200190a350505050565b600c81815481106128c357fe5b6000918252602090912001546001600160a01b0316905081565b600080600080600386815481106128f057fe5b600091825260208083208984526004825260408085206001600160a01b038b16865290925290832060018101546007909302909101935091906129339043613a3d565b9050600061294e84600201548361423d90919063ffffffff16565b905060006129698560040154836141e490919063ffffffff16565b9050600084600001548211156129b5576129aa620186a0610dee8860030154610fd18a60040154610dee620186a08c600001546141e490919063ffffffff16565b8554925090506129c8565b60038601546129c59084906141e4565b90505b6001909501549497509550506001600160a01b03909216925050509250925092565b6129f2614378565b6000546001600160a01b03908116911614612a42576040805162461bcd60e51b815260206004820181905260248201526000805160206147f9833981519152604482015290519081900360640190fd5b600a811015612a825760405162461bcd60e51b81526004018080602001828103825260228152602001806147b66022913960400191505060405180910390fd5b600a55565b60095481565b600060018381548110612a9c57fe5b600091825260208083208684526002825260408085203386529092529220805460099092029092019250831115612b0f576040805162461bcd60e51b81526020600482015260126024820152711dda5d1a191c985dce881b9bdd0819dbdbd960721b604482015290519081900360640190fd5b612b18846115ad565b6000612b468260010154610e1d64e8d4a51000610dee876008015487600001546141e490919063ffffffff16565b90508083600301541015612b8b5760405162461bcd60e51b81526004018080602001828103825260258152602001806147916025913960400191505060405180910390fd5b60018301546040805163a9059cbb60e01b81523360048201526024810184905290516001600160a01b039092169163a9059cbb916044808201926020929091908290030181600087803b158015612be157600080fd5b505af1158015612bf5573d6000803e3d6000fd5b505050506040513d6020811015612c0b57600080fd5b505060038301805482900390558154612c24908561427f565b8083556008840154612c419164e8d4a5100091610dee91906141e4565b60018301558254612c5c906001600160a01b031633866142c1565b6002830154612c6b908561427f565b6002840155604080518581529051869133917ff279e6a1f5e320cca91135676d9cb6e44ca8a08c0b88342bcdb1144f6511b5689181900360200190a35050505050565b612cb6614378565b6000546001600160a01b03908116911614612d06576040805162461bcd60e51b815260206004820181905260248201526000805160206147f9833981519152604482015290519081900360640190fd5b600080546040516001600160a01b03909116907f8be0079c531659141344cd1fd0a4f28419497f9722a3daafe3b4186f6b6457e0908390a3600080546001600160a01b0319169055565b60015490565b600d8281548110612d6357fe5b90600052602060002001602052806000526040600020600091509150505481565b612d8c614378565b6000546001600160a01b03908116911614612ddc576040805162461bcd60e51b815260206004820181905260248201526000805160206147f9833981519152604482015290519081900360640190fd5b60006016544311612def57601654612df1565b435b90506001604051806101200160405280866001600160a01b03168152602001856001600160a01b031681526020016000815260200160008152602001612e48670de0b6b3a7640000866141e490919063ffffffff16565b8152600060208083018290526040808401839052606080850197909752608093840183905285546001808201885596845292829020855160099094020180546001600160a01b03199081166001600160a01b039586161782559286015196810180549093169690931695909517905592820151600284015592810151600383015591820151600482015560a0820151600582015560c0820151600682015560e0820151600782015561010090910151600890910155505050565b60085481565b612f10614378565b6000546001600160a01b03908116911614612f60576040805162461bcd60e51b815260206004820181905260248201526000805160206147f9833981519152604482015290519081900360640190fd5b6032811115612fb6576040805162461bcd60e51b815260206004820152601d60248201527f6d6178696d756d206f6620353025206d7573742074616b652070617274000000604482015290519081900360640190fd5b600b55565b612fc3614378565b6000546001600160a01b03908116911614613013576040805162461bcd60e51b815260206004820181905260248201526000805160206147f9833981519152604482015290519081900360640190fd5b6008819055613022438261418a565b60075550600d80546001018155600052565b6013546001600160a01b0316331461307f576040805162461bcd60e51b81526020600482015260096024820152686465763a207775743f60b81b604482015290519081900360640190fd5b601380546001600160a01b0319166001600160a01b0392909216919091179055565b6000546001600160a01b031690565b4360165411156130fa576040805162461bcd60e51b815260206004820152601060248201526f3737ba103cb2ba1039ba30b93a32b21760811b604482015290519081900360640190fd5b60006005838154811061310957fe5b6000918252602080832086845260068083526040808620338752909352919093208054929091029092019250156131455761314384610f12565b505b60005b82548110156131fe57600083600001828154811061316257fe5b6000918252602080832090910154604080516323b872dd60e01b8152336004820152306024820152604481018a905290516001600160a01b03909216945084936323b872dd9360648084019491939192918390030190829087803b1580156131c957600080fd5b505af11580156131dd573d6000803e3d6000fd5b505050506040513d60208110156131f357600080fd5b505050600101613148565b506000610df4612710610dee601454876141e490919063ffffffff16565b613224614378565b6000546001600160a01b03908116911614613274576040805162461bcd60e51b815260206004820181905260248201526000805160206147f9833981519152604482015290519081900360640190fd5b6103e88111156132b55760405162461bcd60e51b81526004018080602001828103825260268152602001806148196026913960400191505060405180910390fd5b601555565b60046020908152600092835260408084209091529082529020805460019091015482565b60145481565b6000436016541115613330576040805162461bcd60e51b815260206004820152601060248201526f3737ba103cb2ba1039ba30b93a32b21760811b604482015290519081900360640190fd5b601754604080516323b872dd60e01b81523360048201523060248201526044810185905290516001600160a01b03909216916323b872dd916064808201926020929091908290030181600087803b15801561338a57600080fd5b505af115801561339e573d6000803e3d6000fd5b505050506040513d60208110156133b457600080fd5b505060075443141561347c57600d546000906133d190600161427f565b9050600d81815481106133e057fe5b6000918252602080832033845290910190526040902054156134065760009150506111b9565b82600d828154811061341457fe5b6000918252602080832033808552920190526040822092909255600c805460018181018355919092527fdf6966c971051c3d54ec59162606531493a51404a002842f56009d7e5cf4a8c790910180546001600160a01b03191690921790915591506111b99050565b60006134986064610dee600954866141e490919063ffffffff16565b905060006134a6848361427f565b60175460408051630852cd8d60e31b81526004810184905290519293506001600160a01b03909116916342966c689160248082019260009290919082900301818387803b1580156134f657600080fd5b505af115801561350a573d6000803e3d6000fd5b50506017546040805163a9059cbb60e01b81523360048201526024810187905290516001600160a01b03909216935063a9059cbb92506044808201926020929091908290030181600087803b15801561356257600080fd5b505af1158015613576573d6000803e3d6000fd5b505050506040513d602081101561358c57600080fd5b50600093506111b992505050565b60066020908152600092835260408084209091529082529020805460019091015482565b600181815481106135cb57fe5b60009182526020909120600990910201805460018201546002830154600384015460048501546005860154600687015460078801546008909801546001600160a01b0397881699509690951696939592949193909289565b60075481565b613631614378565b6000546001600160a01b03908116911614613681576040805162461bcd60e51b815260206004820181905260248201526000805160206147f9833981519152604482015290519081900360640190fd5b601780546001600160a01b0319166001600160a01b0392909216919091179055565b600080600080600586815481106136b657fe5b60009182526020808320898452600680835260408086206001600160a01b038c16875290935291842060018101549390920201935091906129339043613a3d565b6013546001600160a01b031681565b6000806003838154811061371657fe5b6000918252602080832086845260048252604080852033865290925290832060018101546007909302909101935091906137509043613a3d565b9050600061376b84600201548361423d90919063ffffffff16565b905060006137868560040154836141e490919063ffffffff16565b9050600084600001548211156137d6576137c7620186a0610dee8860030154610fd18a60040154610dee620186a08c600001546141e490919063ffffffff16565b855460008755925090506137f8565b60038601546137e69084906141e4565b85549091506137f5908361427f565b85555b855460408051630852cd8d60e31b81526004810185905290516001600160a01b03909216916342966c689160248082019260009290919082900301818387803b15801561384457600080fd5b505af1158015613858573d6000803e3d6000fd5b50505050600061387d612710610dee60155461251c03856141e490919063ffffffff16565b9050600061389c612710610dee601554866141e490919063ffffffff16565b905060006138b2612710610dee866101f46141e4565b60018a0154604080516340c10f1960e01b81523360048201526024810187905290519293506001600160a01b03909116916340c10f199160448082019260009290919082900301818387803b15801561390a57600080fd5b505af115801561391e573d6000803e3d6000fd5b50505060018a0154604080516340c10f1960e01b81523060048201526024810186905290516001600160a01b0390921692506340c10f1991604480830192600092919082900301818387803b15801561397657600080fd5b505af115801561398a573d6000803e3d6000fd5b505050506001890154601354604080516340c10f1960e01b81526001600160a01b03928316600482015260248101859052905191909216916340c10f1991604480830192600092919082900301818387803b1580156139e857600080fd5b505af11580156139fc573d6000803e3d6000fd5b50505060068a0154613a0f91508361418a565b60069099019890985550504360019095019490945550919350505050919050565b601181815481106128c357fe5b6000613a49828461427f565b90505b92915050565b600060018281548110613a6157fe5b60009182526020808320858452600282526040808520338652909252922060099091029091019150613a92836115ad565b6000613ac08260010154610e1d64e8d4a51000610dee876008015487600001546141e490919063ffffffff16565b90508083600301541015613b055760405162461bcd60e51b81526004018080602001828103825260258152602001806147916025913960400191505060405180910390fd5b60018301546040805163a9059cbb60e01b81523360048201526024810184905290516001600160a01b039092169163a9059cbb916044808201926020929091908290030181600087803b158015613b5b57600080fd5b505af1158015613b6f573d6000803e3d6000fd5b505050506040513d6020811015613b8557600080fd5b50506003830154613b96908261427f565b600384015560088301548254613bb69164e8d4a5100091610dee916141e4565b826001018190555050505050565b613bcc614378565b6000546001600160a01b03908116911614613c1c576040805162461bcd60e51b815260206004820181905260248201526000805160206147f9833981519152604482015290519081900360640190fd5b60036040518060e00160405280876001600160a01b03168152602001866001600160a01b03168152602001858152602001613c6766038d7ea4c68000866141e490919063ffffffff16565b8152602001613c7d8466038d7ea4c680006141e4565b815260006020808301829052604092830182905284546001818101875595835291819020845160079093020180546001600160a01b039384166001600160a01b031991821617825591850151958101805496909316959091169490941790558101516002830155606081015160038301556080810151600483015560a0810151600583015560c001516006909101555050505050565b60026020908152600092835260408084209091529082529020805460019091015482565b600060058381548110613d4657fe5b60009182526020808320868452600680835260408086203387529093529190932091029091019150613d77846115ad565b613d8084610f12565b508054831115613d8f57805492505b8054613d9b908461427f565b815560005b8254811015613e50576000836000018281548110613dba57fe5b60009182526020808320909101546040805163a9059cbb60e01b8152336004820152602481018a905290516001600160a01b039092169450849363a9059cbb9360448084019491939192918390030190829087803b158015613e1b57600080fd5b505af1158015613e2f573d6000803e3d6000fd5b505050506040513d6020811015613e4557600080fd5b505050600101613da0565b50604080518481529051859133917ff279e6a1f5e320cca91135676d9cb6e44ca8a08c0b88342bcdb1144f6511b5689181900360200190a350505050565b613e96614378565b6000546001600160a01b03908116911614613ee6576040805162461bcd60e51b815260206004820181905260248201526000805160206147f9833981519152604482015290519081900360640190fd5b6001600160a01b038116613f2b5760405162461bcd60e51b815260040180806020018281038252602681526020018061476b6026913960400191505060405180910390fd5b600080546040516001600160a01b03808516939216917f8be0079c531659141344cd1fd0a4f28419497f9722a3daafe3b4186f6b6457e091a3600080546001600160a01b0319166001600160a01b0392909216919091179055565b6017546001600160a01b031681565b613f9d614378565b6000546001600160a01b03908116911614613fed576040805162461bcd60e51b815260206004820181905260248201526000805160206147f9833981519152604482015290519081900360640190fd5b60056040518060c00160405280878152602001866001600160a01b0316815260200185815260200161402f66038d7ea4c68000866141e490919063ffffffff16565b81526020016140458466038d7ea4c680006141e4565b81526000602091820181905283546001810185559381528190208251805193946006029091019261407992849201906146d1565b5060208201516001820180546001600160a01b0319166001600160a01b0390921691909117905560408201516002820155606082015160038201556080820151600482015560a0909101516005909101555050505050565b600b5481565b6140df614378565b6000546001600160a01b0390811691161461412f576040805162461bcd60e51b815260206004820181905260248201526000805160206147f9833981519152604482015290519081900360640190fd5b6064811115614185576040805162461bcd60e51b815260206004820152601f60248201527f6465706f736974206368657374206665652063616e206265206d617820312500604482015290519081900360640190fd5b601455565b600082820183811015613a49576040805162461bcd60e51b815260206004820152601b60248201527f536166654d6174683a206164646974696f6e206f766572666c6f770000000000604482015290519081900360640190fd5b6000826141f357506000613a4c565b8282028284828161420057fe5b0414613a495760405162461bcd60e51b81526004018080602001828103825260218152602001806147d86021913960400191505060405180910390fd5b6000613a4983836040518060400160405280601a81526020017f536166654d6174683a206469766973696f6e206279207a65726f00000000000081525061437c565b6000613a4983836040518060400160405280601e81526020017f536166654d6174683a207375627472616374696f6e206f766572666c6f77000081525061441e565b604080516001600160a01b038416602482015260448082018490528251808303909101815260649091019091526020810180516001600160e01b031663a9059cbb60e01b179052614313908490614478565b505050565b604080516001600160a01b0380861660248301528416604482015260648082018490528251808303909101815260849091019091526020810180516001600160e01b03166323b872dd60e01b179052614372908590614478565b50505050565b3390565b600081836144085760405162461bcd60e51b81526004018080602001828103825283818151815260200191508051906020019080838360005b838110156143cd5781810151838201526020016143b5565b50505050905090810190601f1680156143fa5780820380516001836020036101000a031916815260200191505b509250505060405180910390fd5b50600083858161441457fe5b0495945050505050565b600081848411156144705760405162461bcd60e51b81526020600482018181528351602484015283519092839260449091019190850190808383600083156143cd5781810151838201526020016143b5565b505050900390565b60606144cd826040518060400160405280602081526020017f5361666545524332303a206c6f772d6c6576656c2063616c6c206661696c6564815250856001600160a01b03166145299092919063ffffffff16565b805190915015614313578080602001905160208110156144ec57600080fd5b50516143135760405162461bcd60e51b815260040180806020018281038252602a81526020018061483f602a913960400191505060405180910390fd5b60606145388484600085614540565b949350505050565b606061454b856146ad565b61459c576040805162461bcd60e51b815260206004820152601d60248201527f416464726573733a2063616c6c20746f206e6f6e2d636f6e7472616374000000604482015290519081900360640190fd5b60006060866001600160a01b031685876040518082805190602001908083835b602083106145db5780518252601f1990920191602091820191016145bc565b6001836020036101000a03801982511681845116808217855250505050505090500191505060006040518083038185875af1925050503d806000811461463d576040519150601f19603f3d011682016040523d82523d6000602084013e614642565b606091505b509150915081156146565791506145389050565b8051156146665780518082602001fd5b60405162461bcd60e51b81526020600482018181528651602484015286518793919283926044019190850190808383600083156143cd5781810151838201526020016143b5565b3b151590565b50805460008255906000526020600020908101906118429190614736565b828054828255906000526020600020908101928215614726579160200282015b8281111561472657825182546001600160a01b0319166001600160a01b039091161782556020909201916001909101906146f1565b5061473292915061474b565b5090565b5b808211156147325760008155600101614737565b5b808211156147325780546001600160a01b031916815560010161474c56fe4f776e61626c653a206e6577206f776e657220697320746865207a65726f20616464726573736e6f7420656e6f75676820756e636f6c6c656374656420746f6b656e7320616e796d6f72656d696e696d756d206f6620313025206d757374206265206469737472696275746564536166654d6174683a206d756c7469706c69636174696f6e206f766572666c6f774f776e61626c653a2063616c6c6572206973206e6f7420746865206f776e65726368657374207265776172642070657263656e746167652063616e206265206d6178203130255361666545524332303a204552433230206f7065726174696f6e20646964206e6f742073756363656564a264697066735822122092c61aa0e24d4c2fa25553340ef5ecc7e881aaf67e1d3fce393c787230e532ff64736f6c634300060c0033","immutableReferences":{},"compiler":{"name":"solc","version":"0.6.12+commit.27d51765.Emscripten.clang"},"schemaVersion":"3.2.4","updatedAt":"2020-09-27T20:12:55.085Z","networkType":"ethereum","userdoc":{"kind":"user","methods":{},"version":1}}